:020000022000DC
:1060000000000120756302005D6302005F6302000F
:106010006163020063630200656302000000000028
:1060200000000000000000000000000067630200A4
:1060300069630200000000006B6302006D630200F0
:10604000ADED02006F630200F10003006F63020018
:106050006F6302006F63020011FE0200BD2B03009C
:10606000B9220300D12203006F630200BD280300A0
:106070006F6302006F6302006F6302006F630200D0
:106080006F630200918D02006F6302006F63020074
:106090006F6302006F630200E5B903006F630200E3
:1060A0006F6302006F630200E92203000123030013
:1060B0006F6302006F630200000000000000000038
:1060C0006F6302006F6302006F6302006F63020080
:1060D000BDDC03006F6302006F630200000000007C
:1060E00000000000000000000000000000000000B0
:1060F00000000000000000000000000000000000A0
:10610000000000000000000000000000000000008F
:10611000000000000000000000000000000000007F
:10612000000000000000000000000000000000006F
:10613000000000000000000000000000000000005F
:10614000000000000000000000000000000000004F
:10615000000000000000000000000000000000003F
:10616000000000000000000000000000000000002F
:10617000000000000000000000000000000000001F
:10618000000000000000000000000000000000000F
:1061900000000000000000000000000000000000FF
:1061A00000000000000000000000000000000000EF
:1061B00000000000000000000000000000000000DF
:1061C00000000000000000000000000000000000CF
:1061D00000000000000000000000000000000000BF
:1061E00000000000000000000000000000000000AF
:1061F000000000000000000000000000000000009F
:10620000354936480A1A02D0072291438D4634494F
:1062100034480A1A06D00722914381F309880222E2
:1062200082F3148830483149314A00F044F831484B
:106230003149324A00F03FF831483249324A00F0E1
:106240003AF832483249334A00F035F83248334997
:10625000334A00F030F833483349344A00F02BF821
:1062600033483449344A00F026F83448344900228F
:1062700000F02CF833483449002200F027F8334866
:106280003349091A082902DB002202604160314AC1
:1062900090471F481F49884205D00268043003B464
:1062A000904703BCF7E700208646EC46002000211B
:1062B000294A9047FEE7884207D0521A05D0037852
:1062C00001300B700131013AF9D17047884202D098
:1062D00002700130FAE770470000012000E0002062
:1062E0000000012000000120285A0400142300208F
:1062F000BC230020D0630200D0630200202A0400E7
:10630000285A04001423002014230020D02B04005A
:10631000D02B0400D02B0400D02B0400D02B040081
:10632000D02B0400D02B0400D02B0400285A0400EA
:10633000D05A0400BC230020BC230020BC23002032
:10634000A0540020A0540020B0540020B0540020DD
:10635000B07400209D6302008DD00300FEE7FEE7CD
:10636000FEE7FEE7FEE7FEE7FEE7FEE7FEE7FEE705
:1063700000F002B8FFF7FCBF0F484FF00701884359
:1063800085460E4880470E48016841F4700101605F
:10639000BFF34F8FBFF36F8FFFF732BF09480A4932
:1063A0000A4A884207D0521A05D0037801300B7090
:1063B0000131013AF9D1704700000120FDDC0200F3
:1063C00088ED00E0BC2B04000023002014230020F3
:1063D000004870479854002000B5A1B00590049182
:1063E00003920293049806F096F9039B1593029B7F
:1063F00016930023179300238DF860300023199320
:10640000229B1A9300231F930FA91F9B0822049815
:1064100006F05AFA08231F93119B1293BDF84030DF
:10642000ADF84C30BDF84230ADF84E3000238DF859
:1064300051309DF83C3003F00303DBB2012B26D131
:106440000F9BC3F395231D939DF83C30C3F3C20308
:10645000DBB28DF85030BDF83C30C3F38313DBB2B0
:106460001C931C9B9A0009A91F9B049806F02CFA08
:106470001C9B9B001F9A13441F9312AA09A915ABDA
:10648000009313461C9A1D9800F072FF2FE09DF8B0
:106490003C3003F00303DBB2022B28D1BDF83E30C1
:1064A000C3F389139BB21E939DF83C30C3F3C20320
:1064B000DBB28DF850301E9B082B28BF08231B939E
:1064C00007A91F9B1B9A049806F0FEF91F9A1B9BB5
:1064D00013441F931E9A1B9BD31A1E9315AB12AA2B
:1064E00007A81B9900F0E6FF1E9B002BE3D1049840
:1064F00006F020F900BF21B05DF804FB00B583B0C1
:106500000190019B1B781A460C4B9B5C002B05D01D
:10651000019B043318460BF053F80BE0019B1B78EA
:106520001A46064B9B5C002B04D1019B0C3318468A
:106530000AF00AFA00BF03B05DF804FBFC2C00204F
:1065400000B587B00390029113468DF80730002301
:106550000593039B1B781A46114B9B5C002B09D0BB
:10656000039B04339DF80720029918460BF07EF830
:1065700005900FE0039B1B781A46094B9B5C002B90
:1065800008D1039B0C339DF80720029918460AF0A6
:1065900053FA0590059B184607B05DF804FB00BF51
:1065A000FC2C002082B001900091034B01221A7054
:1065B00000BF02B0704700BFFC23002030B58DB093
:1065C00003468DF807301A4B02AC1D460FCD0FC4A1
:1065D00095E80F0084E80F00062302934FF0FF3385
:1065E00003934FF0FF3304934FF0FF3305934FF0C5
:1065F000EB7308939DF80730002B01D00D4A00E0A3
:10660000002202AB19460C4808F0F8F90B900B9BDE
:106610000A930A9B002B04D0084A43210A9801F0F0
:10662000EDFA074A9DF80730137000BF0DB030BD7A
:10663000182C0400A565020014230020D02B0400B0
:10664000FD23002000B583B000238DF807309DF8AE
:1066500007301846FFF7B2FF00BF03B05DF804FB38
:1066600000B589B0039002910192019B8DF81F3013
:10667000124B00221A709DF81F301A4602991048DA
:10668000FFF75EFF0690069B0593059B002B04D049
:106690000C4A5321059801F0B1FA00BF0A4B1B7850
:1066A000002B07D0054B1B78DBB283F00103DBB274
:1066B000002BF3D100BF09B05DF804FBFC230020E0
:1066C00014230020D02B0400FD23002000B585B04A
:1066D00003900291054B00934023054A02990398C9
:1066E000FFF77AFE00BF05B05DF804FB61660200AB
:1066F000BC23002082B0019000BF02B070470000B0
:1067000000B583B001900548FFF7F8FE0020FFF7C1
:1067100055FF00BF03B05DF804FB00BF1423002049
:1067200082B00190019BDB6801225A7100BF02B068
:106730007047000000B583B04FF0FF330193FFF7BF
:1067400081FF0421084800F02FFD0190019B002BE0
:1067500003DA0649482015F069FC0348FFF7E0FF1B
:1067600000BF03B05DF804FBAC2B0400582C040000
:1067700000B583B001900091019B1B681B680099D4
:106780000198984700BF03B05DF804FB00B583B0E3
:106790000190019B1B685B680198984700BF03B09C
:1067A0005DF804FB00B583B00190019B1B689B68FA
:1067B0000198984700BF03B05DF804FB82B00190D8
:1067C0000B468DF80330019BDB689DF803201A719E
:1067D00000BF02B0704782B00190019BDB681B795B
:1067E000184602B0704782B00190019BDB6801221D
:1067F0005A7100BF02B0704782B00190019BDB6804
:106800005B79184602B0704700B585B001900091E1
:10681000154BFF229A60144B00221A60124B002283
:106820005A60114B0022C3F818240F4B0022C3F802
:1068300014240D4B012283F820240C4805F0D0FECF
:106840000390039B002B01D0039B08E0084806F04F
:10685000EDF9084A084BD31ADB08029300231846C7
:1068600005B05DF804FB00BF68250020B02A0400D5
:10687000A42C0400AC2B0400C42A0400024A034BDD
:10688000D31ADB0818467047AC2B0400C42A040056
:1068900000B587B001900B468DF803309DF80330AA
:1068A000002B1FD0FFF7EAFF04900023059313E0AD
:1068B000059B9B000E4A13440393039B1B881A46B7
:1068C000019B1B689A4204D1019B059A1A60002320
:1068D00009E0059B01330593059A049B9A42E7D38F
:1068E000052300E00023184607B05DF804FB00BF55
:1068F0001423002000B585B001900B468DF80330BD
:106900009DF8032001AB11461846FFF7C1FF03466F
:10691000002B07D1019BDB00054A13440393039B23
:106920001B6800E00023184605B05DF804FB00BFBB
:10693000C42A040084B001900B468DF80330019BFB
:10694000DB00174A134402939DF80330013B032BED
:106950001CD801A252F823F0696902007169020093
:10696000796902008369020002238DF80F3011E07B
:1069700004238DF80F300DE0029B1B798DF80F304A
:1069800008E0029B5B798DF80F3003E000238DF85F
:106990000F3000BF9DF80F30184604B0704700BF9D
:1069A000C42A040084B00190009100238DF80F30B8
:1069B000019B1B7803F00403DBB2002B24D0019B66
:1069C0001B78C3F30103DBB2012B02D0022B0CD0E6
:1069D00017E0009B1B68019A1288C2F38312D2B29F
:1069E00013449A1C009B1A600BE0009B1B68019AE1
:1069F0005288C2F3891292B213449A1C009B1A6007
:106A000000BF01238DF80F309DF80F30184604B0F9
:106A10007047000000B585B00021074804F01BFB5B
:106A20000390039B0293029B83F310030193019B4A
:106A3000184605B05DF804FB8429002000B589B034
:106A40000390029101920093039B1B0C0793FFF7A5
:106A5000E1FF0690FFF712FF0246079B934204D323
:106A6000214940F2A31015F0E1FA069B1904009B9E
:106A70005A1C0A9B1340079A0A431C4902339B0085
:106A80000B445A60009A0A9B134002339B00174A3A
:106A9000134404330593039B03F00703D9B2059A0B
:106AA000137861F3C5031370019B03F00F03D9B290
:106AB000059A138861F389131380029BC3F31501B0
:106AC000059A136861F39F231360059A13780121D7
:106AD00061F301031370059A13786FF38203137047
:106AE00000BF09B05DF804FBB42C04006825002049
:106AF00000B58BB00390029113468DF80730039BCD
:106B00000233089301238DF8273000238DF81730C6
:106B10000DF11703184601F027FD394B1A68029B47
:106B20001A60374B9A68364B5968354B1B68CB1A3D
:106B3000134401330793089A079B9A4207D901210E
:106B4000304804F0FFFA00238DF8273000BF9DF88D
:106B50002730002B48D0002304939DF80730002BEA
:106B600017D09DF81030012262F301038DF8103028
:106B70009DF8103043F004038DF81030039B03F0B0
:106B80000F03DAB2BDF8103062F38913ADF810309C
:106B900016E09DF81030022262F301038DF81030E8
:106BA0009DF8103043F004038DF81030039BC3F3BD
:106BB00009039AB2BDF8123062F38F13ADF81230A8
:106BC0000F4B1A680E4B9B68134002339B000C4A14
:106BD000134404330693049A069B1A60084B1A6800
:106BE000089B1344064A13609DF81730184601F0BD
:106BF000D1FC9DF8273018460BB05DF804FB00BFB0
:106C0000682500208429002000B58DB005900491EE
:106C100003920293264B9B68099308AB0122194605
:106C20000298FFF765FF0346002B24D0089B023330
:106C30000B9300230A9311E00A9B9B00039A1A44CA
:106C40000B9B591C0B9109990B4012681849023390
:106C50009B000B445A600A9B01330A930A9A029BD9
:106C60009A42E9D3089A099B00931346029A049921
:106C70000598FFF7E3FE0E4B93F82034002B12D05B
:106C800000238DF81F300DF11F03184601F06CFC36
:106C900000BF00F09DF80346002BFAD19DF81F308D
:106CA000184601F077FC00BF0DB05DF804FB00BF93
:106CB0006825002000B583B00190009100230022D8
:106CC00000990198FFF7A0FF00BF03B05DF804FB37
:106CD00000B587B0039002910192019B059305AA2C
:106CE000012302990398FFF78FFF00BF07B05DF8FB
:106CF00004FB00B587B00390029101920093019BC1
:106D00000493009B059304AA022302990398FFF7BA
:106D10007BFF00BF07B05DF804FB00B589B00390AE
:106D2000029101920093019B0593009B06930A9B9D
:106D3000079305AA032302990398FFF765FF00BF95
:106D400009B05DF804FB00B58BB00390029101928D
:106D50000093019B0593009B06930C9B07930D9B4F
:106D600008930E9B099305AA052302990398FFF740
:106D70004BFF00BF0BB05DF804FB00B58BB0039078
:106D8000029101920093019B0493009B05930C9B3D
:106D900006930D9B07930E9B08930F9B099304AAE0
:106DA000062302990398FFF72FFF00BF0BB05DF891
:106DB00004FB0000054B5A68044B1B689A420CBF49
:106DC00001230023DBB21846704700BF682500206E
:106DD00000B599B0FFF7EEFF0346002B01D000236A
:106DE000A2E19A4B0022C3F81824BFF34F8F974BB0
:106DF0005B680493954B9B681093049A109B134017
:106E000002339B00914A13440433139300231193DC
:106E10000023129300230F9304AB19461398FFF736
:106E2000C1FD0346002B19D0884BD3F81834002B32
:106E300014D1864B1A68049B9A4205D8834B1B6871
:106E4000824A536000236FE1049A109B134002337F
:106E50009B007E4A134404331393DDE7002317930A
:106E600011E0049B5A1C0492109A1340179A920046
:106E700001A90A44754902339B000B445B68136007
:106E8000179B01331793179B012BEAD99DF8043008
:106E900003F00303DBB2022B40F09C80BDF8063008
:106EA000C3F389139BB20E93BDF80630C3F3891365
:106EB0009BB2502B28BF50239BB20D930D9BC3F365
:106EC00009039AB2BDF8063062F38F13ADF80630AD
:106ED0000D9B08330C939DF80430C3F3C203DBB25F
:106EE0000F930C995A4805F086FB1190119B002BCB
:106EF00000F0D080119805F00EFC01A9129B082229
:106F0000119805F0C3FC129B08331293049BDA43DB
:106F1000109B134001339B000B930D9A0B9B9A42DD
:106F200042D90B9B002B08D0049A109B13400233CC
:106F30009B00464A1344043300E0464B0A930B9BE4
:106F4000002B02D00B9BDBB201E00D9BDBB28DF876
:106F500027300B9B002B01D03E4B00E00023089311
:106F60000B9B002B06D00D9BDAB20B9BDBB2D31A26
:106F7000DBB200E000238DF81F309DF82720129B24
:106F80000A99119805F082FC9DF82730129A134453
:106F90001293089B002B16D09DF81F20129B089976
:106FA000119805F073FC0EE0049A109B1340023315
:106FB0009B00264A134404330693129B0D9A0699AC
:106FC000119805F063FC0E9B03339A08049B13444D
:106FD00004935FE09DF8043003F00303DBB2012B60
:106FE00058D1BDF80430C3F38313DBB2062B28BF9E
:106FF0000623DAB2BDF8043062F38913ADF8043029
:10700000BDF80430C3F38313DBB2023305939DF85C
:107010000430C3F3C203DBB20F93059B9B001946F8
:107020000B4805F0E8FA1190119B002B32D0119813
:1070300005F071FB01A9129B0822119805F026FCAE
:10704000129B08331293002317931AE0682500203F
:10705000B02A040074250020049B5A1C0492109A44
:10706000134002339B00324A1344191D129B042221
:10707000119805F00BFC129B04331293179B0133FC
:107080001793BDF80430C3F38313DBB21A46179B82
:107090009342E1D3119B002B26D0254BD3F810341B
:1070A000169317E000238DF857301698FFF7A4FBCE
:1070B0000346002B02D001238DF857309DF857303E
:1070C000002B03D011991698FFF752FB169BDB6833
:1070D0001B681693169B002BE4D1119805F02AFB30
:1070E000049B134A536019E0114BD3F810341493E6
:1070F00006E01498FFF756FB149BDB681B6814939B
:10710000149B002BF5D10B4A0B4BD31ADB081B0445
:1071100043F0020309491846FFF7CCFDFFF74AFE8A
:10712000034683F00103DBB2184619B05DF804FB97
:10713000682500200C2B0400C42A0400F82C04004D
:1071400000B585B00023039323E0164BD3F8103429
:10715000029301238DF807300FE00298FFF73BFB05
:1071600003461A46039B934203D100238DF8073050
:1071700006E0029BDB681B680293029B002BECD1AC
:107180009DF80730002B01D0039B07E0039B0133E0
:107190000393039B092BD8DD4FF0FF33184605B04E
:1071A0005DF804FB6825002000B585B001900B4612
:1071B0008DF80330FFF7C4FF0390039BB3F1FF3F4B
:1071C00001D1039B22E0039BDBB219460198FFF734
:1071D000F5FA104BD3F81034002B08D10D4A019B5F
:1071E000C2F81034019BDB6800221A600DE0094BE5
:1071F000D3F81034DA68019BDB6812681A60054B1B
:10720000D3F81034DB68019A1A60039B184605B066
:107210005DF804FB6825002000B583B00C4BD3F863
:10722000103401930A4B012283F8202409E00198CD
:10723000FFF7D9FA0198FFF7A9FA019BDB681B68F1
:107240000193019B002BF2D100BF03B05DF804FB5A
:107250006825002082B00190009100BF02B0704705
:1072600010B584B003900291039BDB88002B0AD0F9
:10727000039BDB881A461F4B009313461E4A1F4987
:10728000029804F0CBF8039B1B7A052B2ED0039BAE
:107290005B7A002B12D0039B9B881A46039B1B7AB8
:1072A00019461046FFF746FB03461A46144B53F89F
:1072B00022301A461349029804F0B0F8039B1B6869
:1072C00019460298FFF7C6FF039B1B7A1A460E4B1E
:1072D00053F82240039B9B8800211846FFF70AFBC6
:1072E000034622460949029804F098F800BF04B00A
:1072F00010BD00BF2C2D04003C2D0400742D040093
:10730000442300208C2D040030230020902D040005
:1073100000B585B00390029113468DF80730039BAA
:107320001B7A052B0FD0039B5B7A002B06D00D4BED
:107330001B681A460C49029804F070F80B49029831
:1073400004F06CF807E09DF80730002B03D00749E4
:10735000029804F063F8029804F03EF800BF05B00C
:107360005DF804FB442300208C2D04009C2D0400B8
:1073700030B58BB007900691059204930E9B1B7B52
:107380008DF827300E9B00221A730E990498FFF790
:1073900067FF059B062B7FD801A252F823F000BFA0
:1073A000BD730200C7730200D7730200EB730200C3
:1073B00009740200317402006174020007990E988A
:1073C00004F02CF869E0069B1B681A4607990E9892
:1073D00004F024F861E0069B1A68069B04331B68DE
:1073E00007990E9804F01AF857E0069B1A68069B56
:1073F00004331968069B08331B6800930B460799F2
:107400000E9804F00BF848E0069B1968069B0433BD
:107410001868069B08331B68069A0C3212680192A2
:10742000009303460A4607990E9803F0F7FF34E0ED
:10743000069B1868069B04331C68069B08331B6870
:10744000069A0C321268069910310968029101926D
:1074500000932346024607990E9803F0DFFF1CE0D5
:10746000069B1C68069B04331D68069B08331B683B
:10747000069A0C3212680699103109680698143081
:10748000006803900291019200932B4622460799CF
:107490000E9803F0C3FF00E000BF00220E9904988D
:1074A000FFF736FF0E9B9DF827201A7300BF0BB025
:1074B00030BD00BF00B587B00390029101920093E8
:1074C000029B082B60D8009B1B7B8DF81330009B20
:1074D00000221A7300990198FFF7C2FE002305935A
:1074E00014E0059A029B9A4209D2039A059B134421
:1074F0001B781A462649009803F090FF03E02549BF
:10750000009803F08BFF059B01330593059B072B28
:10751000E7D92149009803F081FF0023059326E075
:10752000059A029B9A421BD2039A059B13441B782F
:107530008DF812309DF812307E2B0AD89DF812304B
:10754000184619F0C7FA0346002B02D09DF81230F6
:1075500000E02E231A461149009803F05FFF03E074
:107560000F49009803F05AFF059B01330593059BD3
:10757000072BD5D9012200990198FFF7C9FE009B7E
:107580009DF813201A7300E000BF07B05DF804FBFC
:10759000A02D0400A82D0400AC2D0400B02D040083
:1075A000B42D040084B003468DF807309DF80730F1
:1075B0005B08DBB21A460D4B9B5C8DF80F309DF8D3
:1075C000073003F00103002B04D09DF80F301B0996
:1075D000DBB204E09DF80F3003F00F03DBB28DF84F
:1075E0000E309DF80E30184604B07047C0290020B8
:1075F00084B003460A468DF8073013468DF80630EE
:107600009DF8073003F00103002B01D00F2300E0A9
:10761000F0238DF80F309DF8073003F00103002BA5
:1076200004D09DF806301B01DBB201E09DF8063066
:107630008DF80E309DF807305B08DBB21A46114B0F
:107640009A5C9DF807305B08DBB219469DF80F3055
:107650001340DAB20B4B5A549DF807305B08DBB28B
:107660001A46084B9A5C9DF807305B08DBB2194656
:107670009DF80E301343DAB2024B5A5400BF04B0E7
:10768000704700BFC029002000B585B003468DF8C3
:1076900007300023039310E00F4B1A68039BDB00B5
:1076A00013440293029B1B789DF807209A4201D154
:1076B000029B0DE0039B01330393084B1B781A4692
:1076C000039B9342E8DB0649882014F0AFFC0023BB
:1076D000184605B05DF804FB8C2900209029002095
:1076E000C42D040000B585B003460A468DF8073066
:1076F00013468DF806309DF807301846FFF7C4FF93
:107700000390039B002B0BD0039B5B68002B07D0DF
:10771000039B5B689DF806109DF80720104698476C
:1077200000BF05B05DF804FB2DE9F04F87B00346BC
:107730000A468DF80F3013468DF80E309DF80F3045
:107740001846FFF72FFF0346042B00F2C38001A267
:1077500052F823F069770200DF770200FB7702001E
:107760002B780200417802009DF80E30002B00F0CB
:10777000AE809DF80F3001211846FFF739FF002336
:107780008DF817300DF11703184600F0EDFE9DF847
:107790000F204FF001034FF00004A2F12000C2F1CE
:1077A000200104FA02F703FA00F0074323FA01F17B
:1077B0000F4303FA02F6494BD3E9003446EA0302C9
:1077C000009247EA04030193444BDDE90012C3E948
:1077D00000129DF81730184600F0DCFE77E09DF8A7
:1077E0000E30002B01D0022200E000229DF80F3065
:1077F00011461846FFF7FCFE6CE09DF80E30002B9A
:107800000CD09DF80F3003211846FFF7F1FE9DF8CC
:107810000F3001211846FFF765FF5BE09DF80F3040
:1078200001211846FFF7E4FE54E09DF80E30002BCE
:107830004FD19DF80F3004211846FFF7D9FE48E0DC
:107840009DF80E30002B06D09DF80F30032118460E
:10785000FFF7CEFE3EE09DF80F3000211846FFF7FF
:10786000C7FE9DF80F3000211846FFF73BFF0023AD
:107870008DF816300DF11603184600F075FE9DF8D0
:107880000F104FF001024FF00003A1F12006C1F1EB
:10789000200003FA01F502FA06F6354322FA00F059
:1078A000054302FA01F46FEA04086FEA05090B4B7D
:1078B000D3E9003408EA030A09EA040B074BC3E9D9
:1078C00000AB9DF81630184600F064FE02E000BFE1
:1078D00000E000BF00BF07B0BDE8F08FB82900206E
:1078E00000B583B00648074B1B685B0800221946A9
:1078F00000F05EFD019000BF03B05DF804FB00BF27
:10790000982900209429002010B586B0019000230A
:10791000059328E01C4B1A68059BDB001344049375
:10792000049B1B78184608F059FA03468DF80F306F
:10793000049B5B78012B0CBF01230023DBB21A46AA
:107940009DF80F309A420CBF012300238DF80E30B2
:10795000049B1B789DF80E2011461846FFF7E4FEA5
:10796000059B01330593094B1B781A46059B9342EF
:10797000D0DB074BD3E90034234301D0FFF7B0FF3E
:1079800000BF06B010BD00BF8C2900209029002048
:10799000B829002010B584B001900B468DF8033053
:1079A000019BDBB21846FFF76FFE0390039B1B7829
:1079B000184608F013FA03468DF80B30039B5B78EA
:1079C000012B0CBF01230023DBB21A469DF80B30BC
:1079D0009A420CBF012300238DF80A309DF80A302B
:1079E000002B06D0044BD3E90034234301D1FFF729
:1079F00077FF00BF04B010BDB829002010B58AB0D1
:107A000003900B4601928DF80B30019B092B01D896
:107A1000072367E007F02EFF034683F00103DBB284
:107A2000002B09D007F0D4FE0990099B0893089B0E
:107A3000002B01D0089B55E02C4A039B13602C4A75
:107A40009DF80B3013702B4A019B1360102200210C
:107A500029481AF032F8294A4FF000034FF0000489
:107A6000C2E9003431E09DF80B30DB00039A134487
:107A7000079303238DF8143000238DF815309DF8FB
:107A800016306FF300038DF816309DF816306FF343
:107A900041038DF816309DF816306FF382038DF890
:107AA0001630079B9B788DF81530079B1B7818467E
:107AB00005AB134A194608F08FF80990099B069305
:107AC000069B002B01D0069B0CE09DF80B305A1E44
:107AD0008DF80B20002BC6D10A4A00210A4800F07D
:107AE00033FC034618460AB010BD00BF8C290020A5
:107AF0009029002094290020C0290020B8290020C6
:107B00009579020009790200002E040000B583B0C7
:107B1000114B1B68002B04D1104940F2351014F0B2
:107B200085FA002301930CE00B4B1A68019BDB00E4
:107B300013441B780121184608F0C8F8019B013353
:107B40000193074B1B781A46019B9342ECD3002309
:107B5000184603B05DF804FB8C290020C42D0400F6
:107B60009029002086B003900291019201238DF8A4
:107B700017309DF81730204A039B13601E4A029B62
:107B800053601D4A019B9360039B44F201029342A0
:107B900013D0039B44F20202934221D1019B164A67
:107BA000D360154BDB681B881A46134B9A61124B46
:107BB000DB685B68104AD36112E0019B0E4A1361D7
:107BC0000D4B1B699B680C4A53610B4B1B691B686F
:107BD000094A9361084B1B695B68074AD36100BF80
:107BE00072B600BF9DF81730DBB2002BFAD162B637
:107BF00000BF06B0704700BFD029002000B583B099
:107C000002900091019244F2010071466A4600F030
:107C100003F803B000BD00BF30B58BB007900691EC
:107C2000059272B6FFF7F8FA00BFFFF7D1F80346E6
:107C3000002BFAD1079B41F2010293421FD0079B10
:107C400041F20102934203D8079B012B0BD061E064
:107C5000079B44F2010293422FD0079B44F2020299
:107C6000934218D056E0394A394BD31ADB081B042B
:107C700043F0010337491846FFF71CF857E0334A31
:107C8000334BD31ADB081B0443F001033249184677
:107C9000FFF710F84BE0059B09932C4A2C4BD31AA5
:107CA000DB081B0443F00100099B5B681A46099B33
:107CB0001B882A49FFF71DF839E0059B0893234AE2
:107CC000234BD31ADB081B0443F00104089B9D6877
:107CD000089B9B68184605F0C9F803461846089BA0
:107CE0005B681946089B1B68069A029201930091F3
:107CF00003462A461A492046FFF725F8134A144B33
:107D0000D31ADB081B0443F0010316491846FEF79B
:107D1000D1FF0CE00D4A0E4BD31ADB081B0443F0D5
:107D20000103069A10491846FEF7D2FF00BF0F4B19
:107D30001B6803F00103002B00D000BE059A0699D2
:107D40000798FFF70FFF00BF0BB030BD0C2B0400EE
:107D5000C42A0400042E0400242E0400482E04002B
:107D6000642E04008C2E0400A02E0400F0ED00E030
:107D70002DE9F04182B0134800F0F0FF03461946A8
:107D80004FF00002104BD3E90034CF1842EB040847
:107D9000CDE900780D4BD3E90034DDE90012A242B1
:107DA00008BF994207D2DDE9003413F1807544F130
:107DB0000006CDE90056DDE900341846214602B040
:107DC000BDE8F08168230020F8290020002A002067
:107DD00010B489B001900091019B0793009B06931A
:107DE000079BD3E90234CDE90434069BD3E902347E
:107DF000CDE90234DDE90434DDE90212A24208BF14
:107E000099422CBF01230023DBB2184609B05DF86C
:107E1000044B704770B584B00190019B5B69002BE7
:107E200003D12B49A22014F001F900238DF80F3063
:107E3000284B1B78002B46D0019B002B43D0019B85
:107E40001B7FDBB2002B3ED0FFF792FF0A460146B4
:107E5000019BD3E90234A24208BF99422BD3019B74
:107E60001B69002B02D1019B00221A77019B5B69E1
:107E7000019A926910469847019B1B69002B22D0FA
:107E8000019B1B7FDBB2002B1DD0019BD3E90212AB
:107E9000019B1B694FF00004CD1842EB0406019BC7
:107EA000C3E90256019B19460B4804F039FF012330
:107EB0008DF80F3007E0019B1946074804F030FFAA
:107EC00001238DF80F309DF80F30184604B070BDB7
:107ED000C42E0400F4290020042F0400F0B589B05A
:107EE000019000910D230793009B00221A70019BC3
:107EF000D3E90245FFF73CFF02460B46A61A65EBA5
:107F00000307CDE90467DDE90434012B74F10003B4
:107F10001ADB049BB3F5350F05D300F0A9FA02462E
:107F2000154B134402E0019BD3E9023403934FF451
:107F30009603039A0021114800F012FE0790079B58
:107F4000002B05D1012313E000210C4800F0E0FED6
:107F5000079B0D2B07D10198FFF75CFF03461A46DC
:107F6000009B1A7003E00649F52014F05FF8002327
:107F7000184609B0F0BD00BFFFFFB4006823002021
:107F8000C42E040000B583B0044804F003FF019040
:107F9000019B184603B05DF804FB00BF042F0400EA
:107FA00000B583B0044804F017FF0190019B184608
:107FB00003B05DF804FB00BF042F040000B583B0DC
:107FC000FFF7E0FF0190019B002B02D0019B0022F4
:107FD0001A77019B002BF3D100BF03B05DF804FBBF
:107FE00010B4074BD3E9003413F1807144F100025F
:107FF000034BC3E9001200BF5DF8044B704700BF9C
:10800000F829002010B582B00190134B1B68002B9B
:108010001ED0019800F0A2FE02460F4B1B68D3E968
:10802000023423F07F431946104600F015FA034648
:10803000B3F5960F04D3094940F22B1013F0F6FF65
:10804000054B1B681846FFF7E5FE034B00221A603C
:1080500000BF02B010BD00BFF0290020C42E0400F4
:1080600010B582B00190FFF783FE03460C46034A29
:10807000C2E9003400BF02B010BD00BF002A0020DA
:1080800010B586B00190FFF78BFF049000238DF8A8
:108090001730049B002B48D02B4B1B68002B03D1BF
:1080A00001238DF8173019E0049BD3E90212264B07
:1080B0001B68D3E90234A24208BF99420ED20123C1
:1080C0008DF81730204B1B681B7FDBB2002B05D0CF
:1080D0001D4B1B6819461D4804F022FE9DF8173001
:1080E000002B2AD0FFF74EFF04900DF10F03194625
:1080F0000498FFF7F3FE0346002B12D0124B1B68C7
:10810000002B02D1019800F037FC0F4A049B13604A
:108110009DF80F3083F00103DBB2002BB3D000BF1A
:108120000EE0094B00221A60ADE7074B1B68002BDD
:1081300005D1019800F036FC01E000BF00E000BF6F
:1081400000BF06B010BD00BFF0290020042F0400BE
:1081500000B587B001902A4A03AB1946104602F0D9
:1081600094FE059045E0059B1B78012B17D0022B50
:1081700029D0002B2DD1059B5B681B7FDBB283F0E0
:108180000103DBB2002B26D0059B5B6801221A7726
:10819000059B5B6819461B4804F0C2FD1BE0059B6C
:1081A0005A68194B1B689A4203D1174B00221A6078
:1081B00012E0059B5B681946124804F021FE034655
:1081C0008DF8133008E0FFF7F9FE104B01221A700A
:1081D00002E000BF00E000BF094A03AB19461046A9
:1081E00002F06CFE064A03AB1946104602F04DFE43
:1081F0000590059B002BB6D100BF07B05DF804FBCE
:10820000602A0020042F0400F0290020F429002017
:1082100000B583B00190019800F06DFD0346002B7E
:1082200001D0FFF7DDFE0021019800F082FD03463A
:10823000002B02D00198FFF7E5FE0121019800F024
:1082400078FD0346002B02D00198FFF709FF019843
:10825000FFF77EFF0198FFF713FF00BF03B05DF843
:1082600004FB000008B5024800F085FD00BF08BD12
:108270006823002000B585B0034600918DF80730D3
:10828000114A02AB1946104602F0D2FD0390039B3F
:10829000002B13D0039B9DF807201A70039B009AB4
:1082A0005A60094A02AB1946104602F0DAFD03464D
:1082B000002B01D0FFF7D6FF002300E0042318466F
:1082C00005B05DF804FB00BF602A002000B583B054
:1082D000164B1B680093164808235822154902F0D4
:1082E00060FD0190019B002B01D0019B19E06B46C2
:1082F000114A1946114800F0C1FA0190019B002B68
:1083000001D0019B0DE001210C4800F0E3FC0123AA
:108310000B4A0121094800F05BFB0A4B01221A704D
:10832000019B184603B05DF804FB00BF002F04005A
:10833000602A0020082A0020118202006823002001
:10834000FFFF7F00F429002000B587B003900B46A3
:1083500001928DF80B30039B002B04D1134940F29E
:108360002E2013F063FE019B002B04D10F4940F235
:108370002F2013F05BFE019B002B01D1072310E09F
:10838000039B1B680593059B019A5A619DF80B306E
:10839000012B0CBF01230023DBB21A46059B1A6197
:1083A0000023184607B05DF804FB00BFC42E04008C
:1083B00070B586B0039002910192039B002B04D10B
:1083C000164940F23E2013F031FE039B0593059BB6
:1083D0001B7FDBB2002B01D000231BE0059B019A21
:1083E0009A61FFF7C5FC0A460146029B4FF0000464
:1083F000CD1842EB0406059BC3E90256059B1B6999
:10840000002B02D0059B029A1A6105990020FFF704
:1084100031FF0346184606B070BD00BFC42E0400ED
:1084200000B585B00190019B002B04D109494FF4A0
:10843000157013F0FBFD019B0393039B00221A7739
:1084400003990120FFF716FF0346184605B05DF8B3
:1084500004FB00BFC42E040082B001900091019A79
:10846000009BD31A23F07F43184602B070470000E8
:1084700008B5034800F072FC0346184608BD00BF6B
:108480006823002082B0EFF310830093009B0193D8
:1084900072B6019B184602B0704762B600BF7047C3
:1084A00000B585B00190FFF7EDFF0390164B9B6878
:1084B000002B1BD1144B01229A60144BD3F880205F
:1084C000134B1340104A1360104B114AC3F880201D
:1084D0000E4BD3F884300C4A53600C4B4FF0FF32F4
:1084E000C3F88420019B00221A7002E0019B012244
:1084F0001A70039B002B01D1FFF7CFFF0023184612
:1085000005B05DF804FB00BF742A002000E100E024
:10851000FC06FFBD00B585B003468DF80730104B53
:108520009B68002B16D09DF80730002B12D1FFF767
:10853000A9FF03900B4A0A4B1B681360094A084BBA
:108540005B685360064B00229A60039B002B01D1AD
:10855000FFF7A3FF0023184605B05DF804FB00BF3A
:10856000742A002000E100E000B583B0019000F023
:108570002BF80346012B03D00549432013F056FD89
:108580000198FFF78DFF00BF03B05DF804FB00BF4B
:10859000102F040000B583B003468DF8073000F0BB
:1085A00013F80346012B03D00649512013F03EFD7A
:1085B0009DF807301846FFF7ADFF00BF03B05DF828
:1085C00004FB00BF102F040084B0EFF30583019378
:1085D000019BC3F308030393039B002B0DD1EFF31F
:1085E00014830093009B0293029B03F00103002B72
:1085F0000CBF01230023DBB200E00123184604B0C6
:108600007047000082B003468DF807309DF80730B0
:1086100003F01F0205499DF907305B09012000FAAC
:1086200002F241F8232000BF02B0704700E100E0F1
:1086300082B003468DF807309DF8073003F01F0223
:1086400006499DF907305B09012000FA02F2403328
:1086500041F8232000BF02B0704700BF00E100E0F6
:1086600082B0034600918DF807309DF90730002B4A
:108670000CDA009BDAB20C499DF8073003F00F03C7
:10868000043B5201D2B20B441A7609E0009BDAB2E5
:1086900006499DF907305201D2B20B4483F80023FA
:1086A00000BF02B0704700BF00ED00E000E100E055
:1086B00000B583B003460A468DF8073013468DF89F
:1086C00006309DF80630012B03D99DF80630032BA8
:1086D0000BD99DF80630042B03D99DF80630072BE3
:1086E00003D908496B2013F0A1FC9DF806209DF9E1
:1086F000073011461846FFF7B3FF00BF03B05DF81F
:1087000004FB00BF502F040000B583B003468DF872
:1087100007309DF907301846FFF774FF00BF03B01C
:108720005DF804FB00B585B00190019B002B0AD0D9
:10873000074B43F001030393019B9B010293039BAF
:108740000298984700E000BF05B05DF804FB00BF49
:108750004030040084B0039002910192039B029A7E
:1087600002F5A872019943F8221000BF04B07047C7
:1087700082B001900091019B009A02F5A87253F813
:108780002230184602B0704782B001900091019BE0
:10879000009AC3F8042300BF02B0704782B0019072
:1087A0000091019B009AC3F8082300BF02B07047F4
:1087B00082B001900B46ADF80230BDF80230019A4C
:1087C00013441B68184602B0704784B001900B46F2
:1087D000ADF80230BDF80230019A134400221A604D
:1087E000BDF80230019A13441B680393039B00BF3A
:1087F00004B0704782B00190019BD3F8043518464D
:1088000002B0704700B583B001900091009BB3F5B2
:10881000805F04D306494FF4BE7013F007FC019B40
:10882000009AC3F8082500BF03B05DF804FB00BF41
:10883000802F040082B001900B468DF803309DF824
:108840000320019B13441A460123136000BF02B0AA
:10885000704782B001900091019B009AC3F84423B5
:1088600000BF02B0704782B001900091019B009A56
:10887000C3F8482300BF02B07047000000B587B0BE
:10888000039002910192039B002B03D133495520A1
:1088900013F0CCFB029B002B03D13049562013F080
:1088A000C5FB019B002B03D12C49572013F0BEFBC5
:1088B000039B5B7919462A4A019B42F82130039BAE
:1088C0005B79284ADB0013441B79002B0ED0082368
:1088D0000593254A254BD31ADB081B0443F00203FA
:1088E00023491846FEF7E6F9059B32E0039B1A6818
:1088F000029B1B8819461046FFF784FF039B93F9E0
:108900000420029B9B7819461046FFF7D1FE039B7B
:1089100093F904301846FFF7F7FE039B5B79114A81
:10892000DB00134401221A71039B5B7919460D4A3F
:10893000039B42F83130002305930B4A0B4BD31AAB
:10894000DB081B0443F003030A491846FEF7B2F99B
:10895000059B184607B05DF804FB00BFB02F04006C
:10896000802A0020842A00201C2B0400C42A040032
:10897000E82F04000C30040000B583B00190019B87
:10898000002B03D10649872013F050FB019B1B6885
:1089900000211846FFF74EFF00BF03B05DF804FB4F
:1089A000B02F040000B583B00190019B002B03D1D0
:1089B00006498D2013F03AFB019B1B6804211846E1
:1089C000FFF738FF00BF03B05DF804FBB02F0400D1
:1089D00000B587B00390029101928DF80330039B9C
:1089E000002B03D12149962013F020FB4FF4803255
:1089F000029B02FA03F30593029B50339BB29B0048
:108A0000ADF81230019B23F07F430193039B1B6859
:108A100005991846FFF7C2FE039B1B680599184687
:108A2000FFF721FF039B1B68BDF812201146184673
:108A3000FFF7CBFE039B1B68019A02991846FFF7CC
:108A400089FE039B1B6805991846FFF702FF9DF8F6
:108A50000330002B05D0039B1B6805991846FFF7D0
:108A600093FE00BF07B05DF804FB00BFB02F040009
:108A700000B585B00390029113468DF80730039B33
:108A8000002B03D10B49A92013F0D0FA039B1B68DC
:108A900002991846FFF7DDFE9DF80730002B05D040
:108AA000039B1B6802991846FFF76EFE00BF05B0D6
:108AB0005DF804FBB02F040000B583B00190009175
:108AC000019B002B03D10A49B32013F0AFFA019B9D
:108AD0001B6800991846FFF7C6FE019B1B680099AA
:108AE0001846FFF75BFE00BF03B05DF804FB00BF54
:108AF000B02F040000B583B001900B46ADF80230F2
:108B0000019B002B03D10F49BA2013F08FFA019B70
:108B10001B68BDF8022011461846FFF749FE0346C0
:108B2000002B09D0019B1B68BDF802201146184696
:108B3000FFF74BFE012300E00023184603B05DF869
:108B400004FB00BFB02F040082B001900091019A95
:108B5000009BD31A23F07F43184602B070470000F1
:108B600000B58BB00390029101920093039B002B00
:108B700003D15749CD2013F059FA4FF48032029BAC
:108B800002FA03F30993029B50339BB29B00ADF8AA
:108B90002230019B23F07F43019309990398FFF74B
:108BA0008BFF039B1B681846FFF724FE0790039B6F
:108BB0001B6802991846FFF7DBFD0690039B1B68B4
:108BC000079A02991846FFF7C5FD039B1B68BDF87D
:108BD000222011461846FFF7F8FD07990698FFF77F
:108BE000B3FF0346012B0AD11020FFF79BFD039B27
:108BF0001B68BDF8222011461846FFF7E6FD039BCF
:108C00001B681846FFF7F6FD079007990198FFF7D4
:108C10009BFF0590039B1B6809991846FFF719FEF7
:108C2000059B012B15D1039B1868019B01331A4644
:108C30000299FFF78FFD1020FFF774FD039B1B685F
:108C40001846FFF7D7FD0246079B934235D00D2308
:108C500039E0039B1B68019A02991846FFF77AFDD9
:108C6000039B1B681846FFF7C5FD0790019B013B5E
:108C700007991846FFF768FF0590009BC3F1FF13A3
:108C800003F57F43059A9A4201D90D231BE0059B0A
:108C9000002B12D1039B1868019B01331A460299DD
:108CA000FFF758FD039B1B681846FFF7A3FD02461C
:108CB000079B934201D00D2305E0012209990398F7
:108CC000FFF7D6FE002318460BB05DF804FB00BF8B
:108CD000B02F040000B583B001900B468DF803302F
:108CE0009DF803301A4602210198FFF7C1FE00BF2C
:108CF00003B05DF804FB00B583B001904FF48271BE
:108D00000198FFF7F7FE0346184603B05DF804FB31
:108D100000B583B0019000914FF48032009B02FABD
:108D200003F319460198FFF7C7FE00BF03B05DF8D3
:108D300004FB00B585B001900091009B50339BB2BD
:108D40009B00ADF80E30BDF80E3019460198FFF7C4
:108D5000D1FE0346184605B05DF804FB00B583B0AC
:108D60000190019B1B681846FFF744FD0346184617
:108D700003B05DF804FB00B583B00190019B93F94B
:108D800004301846FFF754FC00BF03B05DF804FB45
:108D900008B5044B1B68044A12681046984700BF88
:108DA00008BD00BF802A0020842A002082B00190E4
:108DB000019B03F00303002B0CBF01230023DBB254
:108DC000184602B07047000000B585B0019000233E
:108DD00003930EE00A4A039B52F82330002B05D080
:108DE000074A039B52F8233001989847039B0133AD
:108DF0000393039B032BEDD900BF05B05DF804FB83
:108E00009C2A002082B001900091019B1B78013BBD
:108E1000052B61D801A252F823F000BF358E020065
:108E20003D8E0200638E0200958E0200B58E020018
:108E3000D18E0200009B00221A704EE0009B01229E
:108E40001A70019B1A89009B9A81019B9A88009B4A
:108E5000DA81019BDA68009B9A60009B00221A74F9
:108E60003BE0009B02221A70019B1A89009B9A81A9
:108E7000019B9A88009BDA81019BDA68009B9A60CB
:108E8000019B9B7D062B0CBF01230023DAB2009BC4
:108E90001A7422E0009B03221A70019BDA88009B5F
:108EA0009A81019B1A89009BDA81019BDA68009BF9
:108EB0009A6012E0009B04221A70019BDA88009BE2
:108EC0009A81009B0022DA81009B00229A6004E0D4
:108ED000009B05221A7000E000BF00BF02B070477F
:108EE00084B001900091019B0393039A009B9A42E6
:108EF00006D2039B1B68B3F1FF3F01D0012300E0C2
:108F0000002303F00103DBB2184604B0704782B0BF
:108F10000190019B5B8803339B00019A1344184620
:108F200002B0704700B583B0019000910198FFF73F
:108F3000EEFF0246009B934201D2022311E0019B07
:108F40009B884FF6FF72934208D0019B1B88002B31
:108F500004D0019B9B68B3F1FF3F01D1012300E0E6
:108F60000023184603B05DF804FB000000B583B091
:108F70000190019B002B13D00D4BDB681A46019B1F
:108F800093420DD30A4B1B691A46019B934207D8A3
:108F90000198FFF70BFF0346002B01D0012300E0EF
:108FA000002303F00103DBB2184603B05DF804FBB5
:108FB0000023002082B00190019B002B04D0019B74
:108FC0001B680B4A934201D003230DE0019B04333D
:108FD0001B68084A934204D0074A934203D10123F5
:108FE00002E0002300E00323184602B0704700BFF0
:108FF000DEC0ADDEFE011EF1FF011EF184B0019066
:10900000019B1B68B3F1FF3F06D0019B1B680E4A12
:10901000934201D0002314E0012303930CE0039B4F
:109020009B00019A13441B68B3F1FF3F01D000235A
:1090300007E0039B01330393039BB3F5806FEED3EB
:109040000123184604B07047DEC0ADDE82B003468F
:109050000A46ADF806301346ADF80430BDF80620D8
:10906000134913469B0013449B000B4408331A8892
:10907000BDF804301344ADF80430BDF806200C49A7
:1090800013469B0013449B000B440A331A88BDF817
:1090900004301344ADF80430BDF80430B3F5806FEC
:1090A00094BF01230023DBB2184602B0704700BF13
:1090B0004C2B002084B00190009148F20963039387
:1090C0000023ADF80A3027E0BDF80A201649134600
:1090D0009B0013449B000B4404331B68009A9A4284
:1090E00015D9BDF80A20104913469B0013449B0074
:1090F0000B4404331B6803F58053009A9A4206D24E
:1091000000230393019BBDF80A201A8008E0BDF8F4
:109110000A300133ADF80A30BDF80A30032BD3D939
:10912000039B184604B070474C2B002000B589B053
:10913000039002910192039B03F580530693039BD6
:1091400008330393029B02221A80039B079332E0A9
:1091500006990798FFF7E6FE03468DF817309DF84D
:109160001730002B0AD1079B9A68184B1B689A424C
:1091700013D9079B9B68154A13600EE0019B002BD7
:1091800002D0019B01221A709DF81730022B04D1E6
:10919000029B4FF480621A8014E0029B1A88079B9E
:1091A0005B8813449BB203339AB2029B1A800798E0
:1091B000FFF7ADFE079006990798FFF791FE03466B
:1091C000002BC5D109B05DF804FB00BFAC2A00201C
:1091D00082B001900091009B9B7D022B09D9019BDD
:1091E0001A89009BDB8813449BB203339AB2019B1C
:1091F0001A81019B5A89009BDB88D31A9BB2033BDF
:109200009AB2019B5A8100BF02B0704700B583B08B
:10921000074B1B681946002300930823054A06489C
:1092200002F04AFD0346184603B05DF804FB00BF98
:109230009C2B00207C3004000023002000B585B06A
:1092400003900399002300930823044A044802F082
:1092500033FD0346184605B05DF804FB8430040076
:109260000023002000B585B003460091ADF806301C
:1092700000238DF80F30BDF806300333ADF80A3007
:10928000BDF80A3040F2FE32934202D948F2086338
:109290004BE00023ADF80C303BE0BDF80C20254935
:1092A00013469B0013449B000B441B78002B2BD1CF
:1092B000BDF80A20BDF80C3011461846FFF7C6FE6F
:1092C0000346002B20D001238DF80F30009BBDF802
:1092D0000C201A80BDF80C20164913469B0013443D
:1092E0009B000B440A331988BDF80C20BDF80A30E6
:1092F0000B4498B20F4913469B0013449B000B4448
:109300000A3302461A8008E0BDF80C300133ADF88C
:109310000C30BDF80C30032BBFD99DF80F30002B5B
:1093200001D0002301E048F20663184605B05DF85D
:1093300004FB00BF4C2B002082B003460A46ADF868
:1093400006301346ADF80430BDF804200D4913462D
:109350009B0013449B000B440A331A88BDF8063067
:10936000D31A9BB2BDF80420033B98B205491346BB
:109370009B0013449B000B440A3302461A8000BF33
:1093800002B070474C2B002008B50121024801F0C3
:10939000D9FE0346184608BDAC2A002000B585B0AA
:1093A00003460091ADF80630BDF806202249134669
:1093B0009B0013449B000B4404331B6803F580534C
:1093C0000293009B1B680393039B002B04D003981C
:1093D000FFF79DFD039023E0BDF8062016491346D4
:1093E0009B0013449B000B4404331B680833039316
:1093F00016E002990398FFF795FD0346012B08D06C
:10940000022B0BD0002B0BD1009B039A1A60012377
:109410000EE00398FFF77BFD039001E0002307E0D7
:1094200002990398FFF75CFD0346002BE1D100236E
:10943000184605B05DF804FB4C2B002000B585B044
:1094400001900091019B5B681846FFF78FFD034672
:10945000002B19D0019B1A89244B1B899A4213D1E6
:10946000019B1A68019B5B689B689A420CD1019B27
:109470005B6819460098FFF71DFE0346002B0CBFE2
:1094800001230023DBB22CE0009B00221A8023E0A2
:109490000023029310E0029B0393039B9A68019BB5
:1094A0001B689A4208D1029A019B5A600F4B1A8995
:1094B000019B1A81012314E0009B1B8802AA11461C
:1094C0001846FFF76BFF0346002BE4D1009B1B8877
:1094D00001339AB2009B1A80009B1B88032BD7D9BB
:1094E0000023184605B05DF804FB00BFA42B002044
:1094F00000B587B00390029101920093324B1B7824
:10950000DBB283F00103DBB2002B02D048F201632F
:1095100055E0019B002B02D0009B002B49D148F263
:1095200004634CE0009B9B881946284A0B469B002D
:109530000B449B0013441B78002B33D124E0009B89
:109540001B680593039B002B06D0059B9A88039B01
:109550001B889A4200D017E0029B002B06D0059B87
:109560001A88029B1B889A4200D00DE0059B9A68DE
:10957000019B1A60009B1A68019B5A60144B1A8960
:10958000019B1A8100231AE0009B9B88009A1146D8
:109590001846FFF703FF0346002BD0D1009B0022A3
:1095A0001A6000E000BF009B9B8801339AB2009BC9
:1095B0009A80009B9B88032BB4D948F20963184614
:1095C00007B05DF804FB00BF8C2A00204C2B002064
:1095D000A42B002000B587B00291019200930346AE
:1095E000ADF80E30BDF80E20314913469B001344F0
:1095F0009B000B4404331B6808330593BDF80E2011
:109600002B4913469B0013449B000B4404331B68F7
:1096100003F58053049341E004990598FFF782FC19
:109620000346012B04D0022B22D0002B15D034E0AE
:10963000019B1B8801339AB2019B1A80009B1A88F8
:10964000059B5B8813449BB203339AB2009B1A803C
:109650000598FFF75CFC059020E0029B1B88013316
:109660009AB2029B1A800598FFF751FC059015E00D
:10967000019B1B8801339AB2019B1A80009B1A88B8
:109680000499059BCB1A9B109BB213449AB2009B82
:109690001A80089B01221A7007E000BF0499059800
:1096A000FFF71EFC0346002BB6D107B05DF804FBA4
:1096B0004C2B002000B585B00190084B019918464D
:1096C00001F0B6FB03901C220021039818F0F5F975
:1096D000039B184605B05DF804FB00BF3C2B00203F
:1096E00000B583B00190044B0199184601F0B9FB15
:1096F00000BF03B05DF804FB3C2B002000B583B035
:109700000190054B0199184601F0BFFB034618462E
:1097100003B05DF804FB00BF3C2B002000B583B014
:109720000190044B0199184601F0C8FB00BF03B03B
:109730005DF804FB3C2B002008B50A4B1B68002B8E
:1097400004D109494FF4247012F070FC012105483E
:1097500001F010FD0346002B14BF01230023DBB2F0
:10976000184608BD942A00204830040000B587B090
:10977000002305930023ADF812300523ADF8103017
:1097800000238DF80F300023ADF80C30F3E0BDF866
:109790000C301A03804BDB68134402930298FFF7E6
:1097A00009FC03468DF807309DF80730012B00F0C7
:1097B0009C80032B02D0002B62D0D7E00298FFF7E9
:1097C0001DFC0346002B3BD0744B1B68002B29D09B
:1097D000BDF81220724913469B0013449B000B44B2
:1097E00002221A70BDF812206D4913469B001344E3
:1097F0009B000B440433029A1A60BDF8122068499A
:1098000013469B0013449B000B44083302221A802A
:10981000644ABDF812305380BDF812300133ADF800
:10982000123008E05D4A029B13605C4B02229A8072
:1098300001238DF80F30059B43F00103059395E05C
:10984000BDF81030013BADF81030BDF8122054497E
:1098500013469B0013449B000B440433029A1A6086
:10986000BDF812204E4913469B0013449B000B4445
:1098700003221A70BDF812300133ADF8123075E0D2
:10988000BDF81220464913469B0013449B000B442D
:1098900000221A70BDF81220414913469B00134460
:1098A0009B000B440433029A1A60BDF81220134641
:1098B0009B0013449B000833394A9918BDF81220C5
:1098C00013469B0013449B001033354A13441A4639
:1098D0000298FFF72BFC059B43F002030593BDF8AC
:1098E00012300133ADF8123040E09DF80F30002BFC
:1098F00029D0BDF812202A4913469B0013449B002F
:109900000B4402221A70BDF81220244B1968244817
:1099100013469B0013449B00034404331960BDF8B5
:1099200012201F4913469B0013449B000B4408332D
:1099300002221A801B4ABDF812305380BDF8123043
:109940000133ADF81230154A029B1360002216490C
:109950000298FFF7EBFB114B9B88022B01D10423EC
:1099600000E00823059A1343059300BFBDF80C30AF
:109970000133ADF80C30BDF80C30042B7FF607AF87
:10998000BDF81030012B01D800230593059BDBB2F5
:10999000184607B05DF804FB002300209C2B002034
:1099A0004C2B0020A42B0020A02B002000B587B05A
:1099B00003900291039B02229A750299039B1A1D40
:1099C000002300930423074802F076F90590059BD5
:1099D000002B01D1002301E048F20D63184607B0C7
:1099E0005DF804FB0023002000B587B003900291CE
:1099F000039B1B69002B01D0032200E00122039B83
:109A00009A75029B08331946039B03F10C0200234D
:109A100000930423074802F04FF90590059B002BA3
:109A200001D1002301E048F20D63184607B05DF84C
:109A300004FB00BF0023002000B587B00390029113
:109A4000039B1B78032B01D1052200E00622039B18
:109A50009A75029B04331946039B03F10802002305
:109A600000930423074802F027F90590059B002B7B
:109A700001D1002301E048F20D63184607B05DF8FC
:109A800004FB00BF0023002000B587B003900B4605
:109A9000ADF80A3003990023009304230D4A0E48C1
:109AA00002F00AF90590059B002B02D048F20D63E5
:109AB0000BE0BDF80A20094913469B0013449B00A4
:109AC0000B44103301221A700023184607B05DF8CA
:109AD00004FB00BF8C300400002300204C2B00202E
:109AE00000B589B0019002AB00221A605A609A60FA
:109AF000019BDB6802930DF1160202AB114618467A
:109B0000FFF79CFC0346002B12D0039B0693069B99
:109B10009A88019BDA80069B1A88019B1A81039B15
:109B2000BDF8162011461846FFF7AEFF079002E079
:109B300048F209630793079B184609B05DF804FBD8
:109B400000B587B00190019B981D02AA0D4B002122
:109B5000FFF7CEFC0590059B002B08D1039A094B1B
:109B60009B8819461046FFF78FFF059004E00822F6
:109B70000021044817F0A1FF059B184607B05DF8C7
:109B800004FB00BFB42B002000B587B00390029106
:109B9000039B01229A75029B0C331846039B1A699A
:109BA000039BDB889900002300930B46014607487E
:109BB00002F082F80590059B002B01D1002301E003
:109BC00048F20D63184607B05DF804FB002300203F
:109BD00082B0184B1B8901339AB2164B1A81154B70
:109BE00000225A80134B00229A730023ADF80630EE
:109BF00018E0BDF80620104913469B0013449B0053
:109C00000B441A78BDF80630002A0CBF012200224E
:109C1000D1B2084A13440A469A72BDF8063001339D
:109C2000ADF80630BDF80630032BE2D900BF02B014
:109C3000704700BFA42B00204C2B002084B0019063
:109C400000238DF80F300023ADF80C3031E0BDF863
:109C50000C301C4A13449B7A002B25D0BDF80C30E5
:109C6000184A134400229A72BDF80C201649134674
:109C70009B0013449B000B440C331B68002B13D137
:109C8000BDF80C20104913469B0013449B000B4465
:109C900010331B78002B07D0019BBDF80C201A80D5
:109CA00001238DF80F3008E0BDF80C300133ADF81A
:109CB0000C30BDF80C30032BC9D99DF80F30184675
:109CC00004B07047A42B00204C2B002008B5084B93
:109CD00005221A70074B02229A80064B1B68194610
:109CE00000230122044802F0C9F80346184608BDC3
:109CF000A42B00209C2B00200023002000B583B063
:109D0000164B5B88ADF80230BDF8022014491346AB
:109D10009B0013449B000B440C331B68002B14D195
:109D20000E4B04221A70BDF802200D4913469B0009
:109D300013449B000B4404331B6819460023012283
:109D4000084802F09BF8019002E0FFF7BFFF019086
:109D5000019B184603B05DF804FB00BFA42B002054
:109D60004C2B00200023002000B587B0114B5B680E
:109D70000593114B1A68104B9B889B001344049366
:109D8000059B5B880333ADF80E300A4B03221A7033
:109D90000499084B5A68BDF80E30980000230093D0
:109DA0000346064801F088FF0346184607B05DF8F1
:109DB00004FB00BFA42B00209C2B002000230020CC
:109DC00000B583B00A4B5B880A491846FFF7E6FAEC
:109DD0000346002B03D0FFF7C7FF019002E0FFF717
:109DE0008DFF0190019B184603B05DF804FB00BF96
:109DF000A42B0020A82B002008B50A4B06221A70BD
:109E0000084B5B881946084A0B469B000B449B0095
:109E1000134404331B681846FFF710FA034618462C
:109E200008BD00BFA42B00204C2B002008B5054B1B
:109E300007221A70034B00225A60FFF7E7F9034626
:109E4000184608BDA42B002008B50D48FFF7F6FE04
:109E5000034683F00103DBB2002B0BD0094B002239
:109E60001A70084B00225A80064B00225A6041F6B5
:109E70001D5302E0FFF7A4FF0346184608BD00BFCC
:109E8000A62B0020A42B002082B0094B5B68019315
:109E9000019B5B880333ADF80230064B9A88BDF80E
:109EA000023013449AB2034B9A8000BF02B070474D
:109EB000A42B00209C2B002082B0184B1B68019320
:109EC000174B5B881946174A0B469B000B449B00B7
:109ED000134404331B68114A1360114B5B88194605
:109EE000104A0B469B000B449B0013440433019A19
:109EF0001A600B4B5B881946084B9888094A0B4639
:109F00009B000B449B001344083302461A80034B0A
:109F100002229A8000BF02B0704700BF9C2B002035
:109F2000A42B00204C2B002008B51A4B1B78072BC4
:109F30002CD801A252F823F0599F02008D9F0200F5
:109F40008D9F0200659F0200719F02007D9F0200AD
:109F50007D9F0200859F0200FFF73AFE0D4B012214
:109F60001A7014E0FFF790FF0A4B02221A700EE0FD
:109F7000FFF7A2FF074B06221A7008E0054B0722E5
:109F80001A7004E0034B01221A7000E000BF00BF0A
:109F900008BD00BFA42B002000B587B00190009140
:109FA00048F20E630593019B002B05D0634B002202
:109FB0005A604FF40643BCE0009B1B79032B00F270
:109FC000AB8001A252F823F0D99F0200E79F020064
:109FD00075A0020095A00200009B01221A71FFF7F4
:109FE00015F905909BE000238DF813300023ADF8A0
:109FF00010302BE0BDF81020514913469B0013444C
:10A000009B000B441B78022B1BD1BDF810204C4940
:10A0100013469B0013449B000B4400221A7001233B
:10A020008DF81330BDF81020454913469B001344AA
:10A030009B000B4404331B681846FFF7FFF805909C
:10A0400008E0BDF810300133ADF81030BDF8103025
:10A05000032BCFD99DF8133083F00103DBB2002B23
:10A060005CD0364B01221A70344B00225A6041F604
:10A070001D535EE0009B00221A71324B02229A802F
:10A08000304B1B681946002301222F4801F0F6FED1
:10A09000059044E0009B00221A712A4B1B68184669
:10A0A000FFF7CCF80590294B5B88ADF80E30254BB7
:10A0B0001B680293BDF80E20214913469B001344F0
:10A0C0009B000B4404331B681E4A1360BDF80E202E
:10A0D0001B4913469B0013449B000B440433029A14
:10A0E0001A60BDF80E20174B9888154913469B003F
:10A0F00013449B000B44083302461A80114B022282
:10A100009A80BDF80E200E4913469B0013449B0015
:10A110000B4400221A7002E000BF00E000BF059B64
:10A12000002B05D0054B00225A6048F20D6300E079
:10A130000023184607B05DF804FB00BF8C2A0020FE
:10A140004C2B00209C2B002000230020A42B00205F
:10A1500000B587B001900091009B9B8A1A46134678
:10A160009B0013449B003B4A13440493019B002B28
:10A1700006D000990498FFF72BF84FF4064364E0EB
:10A18000049B5A68049B1B899B0013440393009B08
:10A190009B7D062B4DD801A252F823F0E1A10200CD
:10A1A00005A20200EDA10200F9A10200B9A102007E
:10A1B00011A202002BA20200274B00225A60009B32
:10A1C0009B69254A136025492348FFF737F9034661
:10A1D00083F00103DBB2002B02D048F2096334E0C4
:10A1E00003990098FFF7E2FB059026E00399009899
:10A1F000FFF7FAFB059020E003990098FFF7C4FCF5
:10A2000005901AE003990098FFF716FC059014E0FA
:10A21000009B06229A75104B5A68104B1B881946F2
:10A220001046FFF731FC059007E041F61D530593FA
:10A2300003E048F20E63059300BF059B002B03D09B
:10A2400000990498FEF7C4FF059B184607B05DF817
:10A2500004FB00BF4C2B0020BC2B0020C82B00208F
:10A2600000B585B001900091019B002B02D04FF406
:10A27000064326E0009B1B79012B0BD0022B16D046
:10A28000002B18D1009B02221A710098FFF728FCBE
:10A29000039015E00098FFF753FC0390039B48F2EE
:10A2A000096293420BD141F61D53039307E041F637
:10A2B0001D53039304E048F20E63039300E000BFD4
:10A2C000039B184605B05DF804FB000000B585B09F
:10A2D0000190019B002B02D04FF406433DE0214B3F
:10A2E0009B7B002B03D01F4B00229A7301E0FFF7EA
:10A2F0001BFE1C4B1B78013B062B29D801A252F8F0
:10A3000023F000BF21A3020029A3020031A3020011
:10A3100039A3020051A3020041A3020049A3020095
:10A32000FFF792FD039017E0FFF74AFD039013E05B
:10A33000FFF71AFD03900FE0FFF7E0FC03900BE03E
:10A34000FFF75AFD039007E0FFF770FD039003E06D
:10A3500048F20E63039300BF039B184605B05DF8F7
:10A3600004FB00BFA42B002000B589B00190404B36
:10A370001B68002B05D13F48FFF7C0F902463C4B54
:10A380001A603B4B1B68002B04D13B4940F29B50A9
:10A3900011F04CFE364B1B681B78013B052B2CD86B
:10A3A00001A252F823F000BFC1A30200D1A3020012
:10A3B000D1A30200E1A30200E1A30200F1A3020085
:10A3C0002B4B1B6819460198FFF7E6FD019018E03A
:10A3D000274B1B6819460198FFF7BAFE019010E061
:10A3E000234B1B6819460198FFF73AFF019008E0DC
:10A3F0000198FFF76BFF019003E048F20E630193B1
:10A4000000BF019B002B2BD003AB00221A605A60C7
:10A410009A60DA601A61019B41F61D52934201D0A5
:10A42000019B00E000230493114B1B6803AA114613
:10A430001846FEF7E7FC03AB1846FEF7C5FC0C4BCD
:10A4400000221A60002301930A48FFF767F9FFF71B
:10A4500073F9034683F00103DBB2002B02D186E7D8
:10A4600000BF00E000BF00BF09B05DF804FB00BF03
:10A47000CC2B0020D02B00204830040008B501214F
:10A48000054800F047FE0346002B02D10020FFF7ED
:10A490006BFF00BF08BD00BF942A002000B583B049
:10A4A0000190019B5B681846FFF75EFF00BF03B099
:10A4B0005DF804FB00B58BB00390029101928DF81A
:10A4C00003300023ADF824300023ADF82630534B81
:10A4D0001B78DBB283F00103DBB2002B02D048F221
:10A4E000016397E0029B002B02D148F2046391E0E4
:10A4F000029B1B884FF6FF72934203D0029B5B883E
:10A50000002B02D148F2036384E0029B5B6818468B
:10A51000FEF74CFC034683F00103DBB2002B02D0B4
:10A5200048F2026376E0019B002B11D1029B9B68ED
:10A53000ADF826300DF11A02BDF826301146184646
:10A54000FEF790FE0890089B002B09D0089B61E065
:10A55000019B1B88ADF81A30019B5B88ADF8263053
:10A5600005AB1846FFF7A6F80790079B002B0AD10A
:10A57000BDF81A20BDF8263011461846FEF7DCFE5D
:10A5800048F2076346E0079B9DF803201A70079B7B
:10A5900000229A75BDF81A20079B9A82029B5A687E
:10A5A000079B1A61FEF7F0FE0246079BDA60029BEA
:10A5B0001A88079B1A81029B5A88079B9A80079BDF
:10A5C000BDF82620DA809DF80330032B06D1079BC7
:10A5D00004229A75039B1A68079B9A61079BBDF832
:10A5E00024205A8105AB1846FFF77AF8039B002B0D
:10A5F0000DD0039B00225A60079BDA68039B1A6008
:10A60000039B00229A72064B1A89039B1A81FFF75B
:10A6100035FF002318460BB05DF804FB8C2A0020A0
:10A62000A42B002000B585B001900C4B1B68042BB7
:10A6300003D148F20B6303930BE0084B1B680849F6
:10A64000019A41F823200121044800F07BFD0023FA
:10A650000393039B184605B05DF804FB982A00207D
:10A660009C2A002084B040F6F8731B68B3F1FF3FCA
:10A6700002D10F4B1B6802E040F6F8731B6803938E
:10A680004FF080531B6902934FF080535B69019335
:10A69000039BB3F1FF3F04D1019B029A02FB03F33A
:10A6A00000E0039B0093009B184604B0704700BF76
:10A6B0001410001000B583B04FF4A0430193FFF7CE
:10A6C000D1FF0246054B1A61044B1A69019BD31A4C
:10A6D000024AD36000BF03B05DF804FB00230020F2
:10A6E00008B5FFF7E7FF00220349044801F09CFA90
:10A6F0000346184608BD00BF443304000023002071
:10A7000008B504481C238C22034900F04AFB00BF13
:10A7100008BD00BF3C2B0020B02A002000B58BB044
:10A7200002AB00221A605A609A60DA601A61414BEB
:10A730001B78DBB2002B05D002AB1846FEF744FBBA
:10A74000002373E03C4800F02DFD0346002B01D0B0
:10A7500000236BE0FFF7C4FF0990099B002B01D099
:10A76000099B63E0FFF7CCFFFFF700F803468DF885
:10A7700023309DF82330022B03D0062B04D0002B6E
:10A780000ED148F20A6351E02A4B01221A70294B7C
:10A7900000225A6002AB1846FEF716FB002345E084
:10A7A00000BF01AB1846FEF785FF0790079B002B03
:10A7B00002D148F2076339E0079B01221A709DF825
:10A7C0002330013B0A2B29D801A252F823F000BF05
:10A7D000FDA702001DA80200FDA702001DA802009F
:10A7E00015A802001DA8020015A802001DA802005D
:10A7F00005A802000DA8020005A80200079B002280
:10A800001A710CE0079B03221A7108E0079B0222D1
:10A810001A7104E0079B01221A7100E000BF01AB2E
:10A820001846FEF75DFFFFF729FE002318460BB020
:10A830005DF804FB8C2A0020902A002000B585B02A
:10A8400001900091019B002B02D0009B002B02D1B4
:10A8500048F204632AE00DF10A0319460198FEF755
:10A86000EDFD0346002B1FD0019B5B680393BDF8F1
:10A870000A301A4613469B0013449B0008330D4AC6
:10A88000134404330121184600F05CFC009B039A3A
:10A890001A60019B5B6803F10C02009B5A60019BEC
:10A8A00001229A72002301E048F20963184605B0BC
:10A8B0005DF804FB4C2B002000B585B00190019B96
:10A8C000002B02D148F204633BE00DF10A03194664
:10A8D0000198FEF7B3FD0346002B2ED0BDF80A30D9
:10A8E00019461A4A0B469B000B449B0013440C3339
:10A8F0001B68002B1DD0019B9B7A002B19D0BDF843
:10A900000A301A46114913469B0013449B000B441E
:10A910000C331B68591E0D4813469B0013449B00C3
:10A9200003440C331960019B00229A7200230393A5
:10A9300006E048F20563039302E048F209630393DB
:10A94000039B184605B05DF804FB00BF4C2B0020AC
:10A9500000B583B001900091022300220099019874
:10A96000FFF7A8FD0346184603B05DF804FB00B5E9
:10A9700083B001900091019B002B02D148F2046347
:10A9800006E00323002200990198FFF793FD034698
:10A99000184603B05DF804FB00B585B00346ADF87A
:10A9A00006301A4B1B78DBB283F00103DBB2002BBD
:10A9B00002D048F2016324E0BDF806304FF6FF7282
:10A9C000934202D148F203631BE002AB1846FEF744
:10A9D00071FE0390039B002B02D148F2076310E045
:10A9E000039B05221A70039B01221A71039BBDF879
:10A9F0000620DA8002AB1846FEF772FEFFF73EFD36
:10AA00000023184605B05DF804FB00BF8C2A002027
:10AA100000B583B0154B1B78DBB283F00103DBB2CA
:10AA2000002B02D048F201631BE06B461846FEF78C
:10AA300041FE0190019B002B02D148F2076310E018
:10AA4000019B06221A706B461846FEF749FE084B1A
:10AA50001B78002B02D0064B01229A73FFF70EFDE4
:10AA60000023184603B05DF804FB00BF8C2A0020C9
:10AA7000A42B002000B585B0029201930346ADF8E7
:10AA80000E300B46ADF80C3003A90DF10E00019B02
:10AA9000029AFEF72DFD0346184605B05DF804FB4B
:10AAA00000B585B0034602910192ADF80E300DF16C
:10AAB0000E01019B029A0020FEF71AFD034618467C
:10AAC00005B05DF804FB00B585B003460291019224
:10AAD000ADF80E300DF10E00019B029A0021FEF739
:10AAE00007FD0346184605B05DF804FB82B00190EF
:10AAF0000091019B002B02D0009B002B02D148F259
:10AB0000046304E0019B1A68009B1A600023184646
:10AB100002B0704710B586B003904FF48063ADF873
:10AB200014300023ADF812304F4B1B78DBB283F0AA
:10AB30000103DBB2002B02D048F2016391E0039BDA
:10AB4000002B02D148F204638BE01222002103980B
:10AB500016F0B3FF039B05221A800023ADF81630D0
:10AB60007AE0BDF81620414913469B0013449B0030
:10AB70000B4408331988BDF816203C4813469B0047
:10AB800013449B0003440A331B880B44ADF8103078
:10AB9000BDF81620354913469B0013449B000B4417
:10ABA00004331B681846FEF705FA0346032B05D14C
:10ABB000039B1B88013B9AB2039B1A80BDF81620A9
:10ABC0002A4913469B0013449B000B440C3319681D
:10ABD000039B5A888BB213449AB2039B5A80039BFF
:10ABE0001989BDF81620214813469B0013449B0089
:10ABF00003440A331B880B449AB2039B1A81039BBC
:10AC00005A89BDF8103013449AB2039B5A81BDF89B
:10AC10001420BDF81030D31AADF81230039B9B8975
:10AC2000BDF812209A4203D9039BBDF812209A81E5
:10AC3000039B191D039B9A1D039B03F10E04039BA9
:10AC40001033BDF8160000932346FEF7C3FCBDF891
:10AC500016300133ADF81630BDF81630032B80D90D
:10AC60000023184606B010BD8C2A00204C2B002073
:10AC700086B001900091019B53E8011F8AB2D889E8
:10AC800002449889824228BF121A1889824202BF60
:10AC9000BFF32F8F002307E0C2EA010243E801203F
:10ACA0000028E9D14FF001038DF80F300590029193
:10ACB0000492029A009B1A609DF80F30DBB218468E
:10ACC00006B0704784B00190019951E8013FC3EA92
:10ACD000034341E80132002AF7D10392029300BFF7
:10ACE00004B0704786B001900091019B53E8021FA9
:10ACF0001FFAA1F2D888824202BFBFF32F8F002330
:10AD00000DE0D88902449889824228BF121AC1EA0C
:10AD1000024243E802200028E8D14FF001038DF8F9
:10AD20000F30059002910492029A009B1A609DF8E0
:10AD30000F30DBB2184606B0704784B0019001991D
:10AD400051E8023FC3EA234341E80232002AF7D127
:10AD50000392029300BF04B0704786B00190019B3C
:10AD600053E8021FDA88B1EB314F4FF0000017BFF4
:10AD700089B242EA024241EA024204E05968B1EB78
:10AD8000314F08BF012043E802210029E8D18DF8A6
:10AD90000F00059104929DF80F30DBB2184606B003
:10ADA000704784B00390029111461A460B46ADF8E5
:10ADB00006301346ADF80430029B002B01D10E2360
:10ADC0001FE0BDF80630BDF80420B3FBF2F102FB32
:10ADD00001F29B1A9BB2002B01D0092311E0039BC7
:10ADE000029A1A60039B00225A60039B00229A6019
:10ADF000039BBDF806209A81039BBDF80420DA81ED
:10AE00000023184604B0704700B585B00190019842
:10AE1000FFF7A3FF03468DF80F309DF80F30002B8E
:10AE200001D0002300E01123184605B05DF804FBB3
:10AE300000B585B001900091009B19460198FFF77D
:10AE400017FF0346002B07D0019B1B68009A12884E
:10AE500013440393039B00E00023184605B05DF8FC
:10AE600004FB00B583B001900091009B1A88009B01
:10AE70005B889A4204D10198FFF724FF012300E088
:10AE80000023184603B05DF804FB00B585B00190BF
:10AE90000091009B19460198FFF724FF0346002B01
:10AEA00007D0019B1B68009A528813440393039BAD
:10AEB00000E00023184605B05DF804FB00B583B040
:10AEC00001900091009B1A88009B5B889A4204D1F4
:10AED0000198FFF732FF012300E00023184603B07A
:10AEE0005DF804FB00B585B001900091009B5B0903
:10AEF0009B00019AD018009B03F01F03012202FA65
:10AF000003F3194600F0D6F8039000BF05B05DF8D2
:10AF100004FB00B583B001900091009B5B099B008E
:10AF2000019AD018009B03F01F03012202FA03F3D9
:10AF3000194600F0A7F80246009B03F01F0322FA0F
:10AF400003F303F00103002B14BF01230023DBB242
:10AF5000184603B05DF804FB00B585B00190009180
:10AF6000009B5B099B00019AD018009B03F01F0314
:10AF7000012202FA03F3DB43194600F0B3F8039011
:10AF800000BF05B05DF804FB82B001900091009B0A
:10AF90005B099B00019A13441A68009B03F01F038E
:10AFA00022FA03F303F00103002B14BF0123002353
:10AFB000DBB2184602B0704700B58BB0019000912B
:10AFC000002309933BE0099B9B00019A13441B68F3
:10AFD000DB430693069B93FAA3F30593059BB3FA11
:10AFE00083F3089323E0099B5B01089A13440793BA
:10AFF000079A009B9A421ED207990198FFF789FF92
:10B00000034683F00103DBB2002B01D0079B1EE057
:10B01000099B9B00019A13441B68DB430493049B28
:10B0200093FAA3F30393039BB3FA83F30893089B68
:10B030001F2BD8D900E000BF099B01330993009B67
:10B04000013B5B090133099A9A42BCD3009B184625
:10B050000BB05DF804FB10B487B001900091019B28
:10B06000009A53E8004F104643E8000191F0000FAA
:10B07000F7D1059404900391059B184607B05DF83D
:10B08000044B704710B487B001900091019B009A67
:10B0900053E8004F44EA020043E8000191F0000F3A
:10B0A000F6D1059404900391059B184607B05DF80E
:10B0B000044B704710B487B001900091019B009A37
:10B0C00053E8004F44EA020043E8000191F0000F0A
:10B0D000F6D1059404900391049B184607B05DF8DF
:10B0E000044B704710B487B001900091019B009A07
:10B0F00053E8004F04EA020043E8000191F0000F1A
:10B10000F6D1059404900391049B184607B05DF8AE
:10B11000044B704710B487B001900091019B009AD6
:10B1200053E8004F04EB020043E8000191F0000FE8
:10B13000F6D1059404900391059B184607B05DF87D
:10B14000044B704710B487B001900091019B009AA6
:10B1500053E8004F04EB020043E8000191F0000FB8
:10B16000F6D1059404900391049B184607B05DF84E
:10B17000044B704710B487B001900091019B009A76
:10B1800053E8004FA4EB020043E8000191F0000FE8
:10B19000F6D1059404900391049B184607B05DF81E
:10B1A000044B704700B583B0019001210198FFF76F
:10B1B00069FF0346184603B05DF804FB00B583B091
:10B1C00001900B468DF80330019B002B03D10849F9
:10B1D000E82010F02BFF019BDA689DF803300199FD
:10B1E000098A01FB03F31344184603B05DF804FB1E
:10B1F0009030040000B583B001900091019B002BBA
:10B2000003D10849F52010F011FF009B019AD26884
:10B210009B1A019A128AB3FBF2F3DBB2184603B011
:10B220005DF804FB9030040000B585B00190019BEF
:10B23000002B01D10E234CE0019B1B68002B03D196
:10B240002649FF2010F0F2FE019B5B68002B04D121
:10B2500022494FF4807010F0E9FE019B9B68002B9F
:10B2600004D11E4940F2011010F0E0FE019BDB68A2
:10B27000002B04D119494FF4817010F0D7FE019BC7
:10B280001B8A002B04D1154940F2031010F0CEFEAA
:10B29000019B9A68019B5B68D31A8DF80F30019B64
:10B2A0001B68019A52681A6007E0019B1A681368CC
:10B2B000591C11609DF80F201A709DF80F305A1E0E
:10B2C0008DF80F20002BF0D1019B1B6800221A7112
:10B2D0000023184605B05DF804FB00BF9030040061
:10B2E00000B585B00190019B002B04D11F494FF49C
:10B2F000927010F09BFE0023039300238DF80A3018
:10B300000DF10A031846FDF72FF9019B1B681A6817
:10B31000019B5B689A421FD9019B1B681A68013A1E
:10B320001A601B681B7819460198FFF747FF0390C6
:10B33000019B9A68019B1B681B68D31A8DF80B3020
:10B34000019B1B681B799DF80B209A4204D9019B35
:10B350001B689DF80B201A719DF80A301846FDF7FE
:10B3600019F9039B184605B05DF804FB9030040002
:10B3700010B584B001900091019B002B04D11549B8
:10B3800040F2471010F052FE009B002B04D11149EF
:10B390004FF4A47010F04AFE009B039300238DF835
:10B3A0000B300DF10B031846FDF7DEF8019B1B680F
:10B3B0001C68621C1A6003990198FFF71BFF034683
:10B3C00023709DF80B301846FDF7E4F800BF04B079
:10B3D00010BD00BF9030040000B583B00190019B08
:10B3E000002B03D10C49312010F020FE019B9B68FB
:10B3F000002B0CD0019B5B69019A1069019A1168BE
:10B40000019A92689847019B00229A6000E000BF71
:10B4100003B05DF804FB00BFCC3004000EB400B5EF
:10B4200084B00190019B002B03D11849422010F0F9
:10B43000FDFD019B5B69002B03D11449432010F0F3
:10B44000F5FD019B1B68002B03D11049442010F02F
:10B45000EDFD019B5B68002B03D10C49452010F0EA
:10B46000E5FD059B002B0AD00023039306AB039355
:10B4700003AB1A460599019800F0B8F900E000BF47
:10B4800004B05DF804EB03B0704700BFCC3004009B
:10B4900000B583B001900B468DF803309DF8033062
:10B4A0000A2B03D10D210198FFF7F2FF019B1A68C7
:10B4B000019B9B68581C0199886013449DF80320E8
:10B4C0001A70019B9A68019B5B689A4202D30198AB
:10B4D000FFF782FF00BF03B05DF804FB00B587B043
:10B4E000039002910192009300230593009B03F0C7
:10B4F0000103002B24D00BE0029B01330293059B38
:10B50000013305939DF8133019460398FFF7C0FFE8
:10B51000029B1B788DF813309DF81330002BEBD174
:10B5200006E0019B013B019320210398FFF7B0FF48
:10B53000019A059B9A422ED9019B002BF1D12AE05A
:10B54000029B002B0BD0029816F00CFB059006E036
:10B55000019B013B019320210398FFF799FF019A7A
:10B56000059B9A420FD9019B002BF1D10BE0029B66
:10B5700001330293059B013305939DF8133019465F
:10B580000398FFF785FF029B1B788DF813309DF819
:10B590001330002BEBD100BF07B05DF804FB0000B7
:10B5A00000B589B00390029101920093029B07932A
:10B5B0000123069307E0079A019BB2FBF3F307937D
:10B5C000069B01330693079A019B9A42F3D2009A95
:10B5D000069B9A4201D9009B06930B9B03F0010343
:10B5E000002B22D10A9B002B1FD00B9B03F00203E0
:10B5F000002B06D0009B002B03D130238DF8173091
:10B6000002E020238DF8173008E00A9B013B0A93E3
:10B610009DF8173019460398FFF73AFF0A9B002B55
:10B6200003D0069A0A9B9A42EFD301230793009B0B
:10B63000012B03D9009B013B009309E0029A079B71
:10B64000B2FBF3F30493049A019B9A4200D205E003
:10B65000079B019A02FB03F30793E8E7029A079B13
:10B66000B2FBF3F30493049B079A02FB03F3029AE1
:10B67000D31A0293154A049B13441B781946039866
:10B68000FFF706FF079A019BB2FBF3F30793079BB3
:10B69000002BE3D10B9B03F00103002B11D00A9B7D
:10B6A000002B0ED006E00A9B013B0A932021039851
:10B6B000FFF7EEFE0A9B002B03D0069A0A9B9A42E4
:10B6C000F1D300BF09B05DF804FB00BF38310400BE
:10B6D00000B589B00590049103920293049B002B5E
:10B6E000B8BF5B4206930123079307E0039B069ACA
:10B6F00092FBF3F30693079B01330793039B069A90
:10B700009A42F3DA029A079B9A4201D9029B079365
:10B710000A9B002B0AD0049B002B04DB0B9B03F03D
:10B720000403002B02D00A9B013B0A930B9B03F0FE
:10B730000203002B02D0029B002B16D00B9B03F0C0
:10B740000103002B11D10A9B002B0ED006E00A9BAF
:10B75000013B0A9320210598FFF79AFE0A9B002BD4
:10B7600003D0079A0A9B9A42F1D3049B002B07DA75
:10B77000049B5B4204932D210598FFF789FE08E0A6
:10B780000B9B03F00403002B03D02B210598FFF73C
:10B790007FFE0B9B03F00203002B19D00B9B03F0E1
:10B7A0000103002B14D1029B002B11D10A9B002B0B
:10B7B0000ED006E00A9B013B0A9330210598FFF763
:10B7C00067FE0A9B002B03D0079A0A9B9A42F1D38B
:10B7D00004990B9B01930A9B0093029B039A059883
:10B7E000FFF7DEFE00BF09B05DF804FB00B58FB0C7
:10B7F000059004910392059B002B04D1C84940F2A7
:10B80000522010F013FC059B5B69002B04D1C44946
:10B810004FF4157010F00AFC059B1B68002B04D137
:10B82000BF4940F2552010F001FC059B5B68002BDE
:10B8300004D1BB4940F2562010F0F8FB049B002BCA
:10B8400000F0ED81049B1B788DF83730049B0133A9
:10B8500004939DF83730002B00F0D8819DF83730E5
:10B86000252B40F0C78100230A9301230C93049BEE
:10B870001B788DF837309DF837302D2B04D0302BC6
:10B880000AD02B2B10D017E00A9B43F001030A9338
:10B89000049B0133049312E00A9B43F002030A93D2
:10B8A000049B013304930AE00A9B43F004030A93C8
:10B8B000049B0133049302E000230C9300BF0C9B14
:10B8C000002BD4D1002309939DF837302A2B0CD1BB
:10B8D000039B1B68191D039A11601B68099A134486
:10B8E0000993049B013304931AE0049B1B788DF8A1
:10B8F00037309DF837302F2B12D99DF83730392B40
:10B900000ED8049B01330493099A13469B001344F9
:10B910005B001A469DF837301344303B0993D3E758
:10B9200000230B93049B1B788DF837309DF837303C
:10B930002E2B1DD1049B01330493049B1B788DF89F
:10B9400037309DF837302F2B12D99DF83730392BEF
:10B950000ED8049B013304930B9A13469B001344A7
:10B960005B001A469DF837301344303B0B93E4E7F5
:10B97000049B1B788DF837309DF837306C2B03D043
:10B980009DF83730682B07D1049B01330493049B47
:10B990001B788DF83730EFE79DF83730253B532B78
:10B9A00000F2238101A252F823F000BFE1BB0200A4
:10B9B000EBBB0200EBBB0200EBBB0200EBBB0200E7
:10B9C000EBBB0200EBBB0200EBBB0200EBBB0200D7
:10B9D000EBBB0200EBBB0200EBBB0200EBBB0200C7
:10B9E000EBBB0200EBBB0200EBBB0200EBBB0200B7
:10B9F000EBBB0200EBBB0200EBBB0200EBBB0200A7
:10BA0000EBBB0200EBBB0200EBBB0200EBBB020096
:10BA1000EBBB0200EBBB0200EBBB0200EBBB020086
:10BA2000EBBB0200EBBB0200EBBB0200EBBB020076
:10BA3000EBBB0200EBBB0200EBBB0200EBBB020066
:10BA4000EBBB0200EBBB0200EBBB0200EBBB020056
:10BA5000EBBB0200EBBB0200EBBB0200EBBB020046
:10BA6000EBBB0200EBBB0200EBBB0200EBBB020036
:10BA7000EBBB0200EBBB02006DBB0200EBBB0200A4
:10BA8000EBBB0200EBBB0200EBBB0200EBBB020016
:10BA9000EBBB0200EBBB0200EBBB0200EBBB020006
:10BAA000EBBB0200FDBA020025BB0200EBBB0200AB
:10BAB000EBBB0200EBBB0200EBBB020025BB0200AC
:10BAC000EBBB0200EBBB0200EBBB0200EBBB0200D6
:10BAD000EBBB0200EBBB0200ADBB0200EBBB020004
